{
  "contractName": "HelloWorld",
  "abi": [
    {
      "inputs": [],
      "name": "getName",
      "outputs": [
        {
          "internalType": "string",
          "name": "",
          "type": "string"
        }
      ],
      "stateMutability": "view",
      "type": "function",
      "constant": true
    },
    {
      "inputs": [],
      "name": "getNumber",
      "outputs": [
        {
          "internalType": "uint256",
          "name": "",
          "type": "uint256"
        }
      ],
      "stateMutability": "view",
      "type": "function",
      "constant": true
    },
    {
      "inputs": [
        {
          "internalType": "uint256",
          "name": "_number",
          "type": "uint256"
        }
      ],
      "name": "setNumber",
      "outputs": [],
      "stateMutability": "nonpayable",
      "type": "function"
    }
  ],
  "bytecode": "0x60806040526040518060400160405280600481526020017f54455354000000000000000000000000000000000000000000000000000000008152506000908051906020019061004f929190610062565b5034801561005c57600080fd5b50610165565b82805461006e90610134565b90600052602060002090601f01602090048101928261009057600085556100d7565b82601f106100a957805160ff19168380011785556100d7565b828001600101855582156100d7579182015b828111156100d65782518255916020019190600101906100bb565b5b5090506100e491906100e8565b5090565b5b808211156101015760008160009055506001016100e9565b5090565b7f4e487b7100000000000000000000000000000000000000000000000000000000600052602260045260246000fd5b6000600282049050600182168061014c57607f821691505b60208210810361015f5761015e610105565b5b50919050565b610327806101746000396000f3fe608060405234801561001057600080fd5b50600436106100415760003560e01c806317d7de7c146100465780633fb5c1cb14610064578063f2c9ecd814610080575b600080fd5b61004e61009e565b60405161005b91906101dd565b60405180910390f35b61007e6004803603810190610079919061023a565b610130565b005b61008861013a565b6040516100959190610276565b60405180910390f35b6060600080546100ad906102c0565b80601f01602080910402602001604051908101604052809291908181526020018280546100d9906102c0565b80156101265780601f106100fb57610100808354040283529160200191610126565b820191906000526020600020905b81548152906001019060200180831161010957829003601f168201915b5050505050905090565b8060018190555050565b6000600154905090565b600081519050919050565b600082825260208201905092915050565b60005b8381101561017e578082015181840152602081019050610163565b8381111561018d576000848401525b50505050565b6000601f19601f8301169050919050565b60006101af82610144565b6101b9818561014f565b93506101c9818560208601610160565b6101d281610193565b840191505092915050565b600060208201905081810360008301526101f781846101a4565b905092915050565b600080fd5b6000819050919050565b61021781610204565b811461022257600080fd5b50565b6000813590506102348161020e565b92915050565b6000602082840312156102505761024f6101ff565b5b600061025e84828501610225565b91505092915050565b61027081610204565b82525050565b600060208201905061028b6000830184610267565b92915050565b7f4e487b7100000000000000000000000000000000000000000000000000000000600052602260045260246000fd5b600060028204905060018216806102d857607f821691505b6020821081036102eb576102ea610291565b5b5091905056fea2646970667358221220128613986c1c358e8b4fd707444326665997a0a58508c484977d47942e882c6964736f6c634300080d0033",
  "immutableReferences": {},
  "source": "// SPDX-License-Identifier: MIT\r\npragma solidity ^0.8.13;\r\n\r\ncontract HelloWorld {\r\n\r\n    string name=\"TEST\";\r\n    uint number;\r\n\r\n\r\n    function getName() public view returns (string memory) {\r\n        return name;\r\n    }\r\n\r\n    function getNumber() public view returns (uint) {\r\n        return number;\r\n    }\r\n\r\n    function setNumber(uint _number) public {\r\n        number = _number;\r\n    }\r\n}\r\n",
  "sourcePath": "I:\\Web3.0\\truffleMetacoin\\contracts\\HelloWorld.sol",
  "compiler": {
    "name": "solc",
    "version": "0.8.13+commit.abaa5c0e.Emscripten.clang"
  },
  "schemaVersion": "3.4.4",
  "updatedAt": "2022-08-03T20:00:34.950Z",
  "networkType": "ethereum",
  "devdoc": {
    "kind": "dev",
    "methods": {},
    "version": 1
  },
  "userdoc": {
    "kind": "user",
    "methods": {},
    "version": 1
  }
}