{
  "contractName": "JackieToken",
  "abi": [
    {
      "anonymous": false,
      "inputs": [
        {
          "indexed": false,
          "internalType": "address",
          "name": "_from",
          "type": "address"
        },
        {
          "indexed": false,
          "internalType": "address",
          "name": "_to",
          "type": "address"
        },
        {
          "indexed": false,
          "internalType": "uint256",
          "name": "_value",
          "type": "uint256"
        }
      ],
      "name": "Transfer",
      "type": "event"
    },
    {
      "inputs": [
        {
          "internalType": "address",
          "name": "",
          "type": "address"
        }
      ],
      "name": "balanceOf",
      "outputs": [
        {
          "internalType": "uint256",
          "name": "",
          "type": "uint256"
        }
      ],
      "stateMutability": "view",
      "type": "function",
      "constant": true
    },
    {
      "inputs": [],
      "name": "totalSupply",
      "outputs": [
        {
          "internalType": "uint256",
          "name": "",
          "type": "uint256"
        }
      ],
      "stateMutability": "view",
      "type": "function",
      "constant": true
    },
    {
      "inputs": [
        {
          "internalType": "uint256",
          "name": "_tokens",
          "type": "uint256"
        }
      ],
      "name": "tokenSupply",
      "outputs": [],
      "stateMutability": "nonpayable",
      "type": "function"
    },
    {
      "inputs": [
        {
          "internalType": "address",
          "name": "_to",
          "type": "address"
        },
        {
          "internalType": "uint256",
          "name": "_value",
          "type": "uint256"
        }
      ],
      "name": "transfer",
      "outputs": [],
      "stateMutability": "nonpayable",
      "type": "function"
    },
    {
      "inputs": [],
      "name": "getName",
      "outputs": [
        {
          "internalType": "string",
          "name": "",
          "type": "string"
        }
      ],
      "stateMutability": "pure",
      "type": "function",
      "constant": true
    }
  ],
  "bytecode": "0x60806040526040518060400160405280600c81526020017f4a61636b696520546f6b656e00000000000000000000000000000000000000008152506000908051906020019061004f9291906100ae565b506040518060400160405280600281526020017f4a540000000000000000000000000000000000000000000000000000000000008152506001908051906020019061009b9291906100ae565b503480156100a857600080fd5b506101b1565b8280546100ba90610180565b90600052602060002090601f0160209004810192826100dc5760008555610123565b82601f106100f557805160ff1916838001178555610123565b82800160010185558215610123579182015b82811115610122578251825591602001919060010190610107565b5b5090506101309190610134565b5090565b5b8082111561014d576000816000905550600101610135565b5090565b7f4e487b7100000000000000000000000000000000000000000000000000000000600052602260045260246000fd5b6000600282049050600182168061019857607f821691505b6020821081036101ab576101aa610151565b5b50919050565b61062d806101c06000396000f3fe608060405234801561001057600080fd5b50600436106100575760003560e01c806317d7de7c1461005c57806318160ddd1461007a5780632693ebf21461009857806370a08231146100b4578063a9059cbb146100e4575b600080fd5b610064610100565b6040516100719190610379565b60405180910390f35b61008261013d565b60405161008f91906103b4565b60405180910390f35b6100b260048036038101906100ad9190610400565b610143565b005b6100ce60048036038101906100c9919061048b565b610191565b6040516100db91906103b4565b60405180910390f35b6100fe60048036038101906100f991906104b8565b6101a9565b005b60606040518060400160405280600581526020017f53756e696c000000000000000000000000000000000000000000000000000000815250905090565b60025481565b8060028190555080600360003373ffffffffffffffffffffffffffffffffffffffff1673ffffffffffffffffffffffffffffffffffffffff1681526020019081526020016000208190555050565b60036020528060005260406000206000915090505481565b80600360003373ffffffffffffffffffffffffffffffffffffffff1673ffffffffffffffffffffffffffffffffffffffff1681526020019081526020016000205410156101f557600080fd5b80600360003373ffffffffffffffffffffffffffffffffffffffff1673ffffffffffffffffffffffffffffffffffffffff16815260200190815260200160002060008282546102449190610527565b9250508190555080600360008473ffffffffffffffffffffffffffffffffffffffff1673ffffffffffffffffffffffffffffffffffffffff168152602001908152602001600020600082825461029a919061055b565b925050819055507fddf252ad1be2c89b69c2b068fc378daa952ba7f163c4a11628f55a4df523b3ef3383836040516102d4939291906105c0565b60405180910390a15050565b600081519050919050565b600082825260208201905092915050565b60005b8381101561031a5780820151818401526020810190506102ff565b83811115610329576000848401525b50505050565b6000601f19601f8301169050919050565b600061034b826102e0565b61035581856102eb565b93506103658185602086016102fc565b61036e8161032f565b840191505092915050565b600060208201905081810360008301526103938184610340565b905092915050565b6000819050919050565b6103ae8161039b565b82525050565b60006020820190506103c960008301846103a5565b92915050565b600080fd5b6103dd8161039b565b81146103e857600080fd5b50565b6000813590506103fa816103d4565b92915050565b600060208284031215610416576104156103cf565b5b6000610424848285016103eb565b91505092915050565b600073ffffffffffffffffffffffffffffffffffffffff82169050919050565b60006104588261042d565b9050919050565b6104688161044d565b811461047357600080fd5b50565b6000813590506104858161045f565b92915050565b6000602082840312156104a1576104a06103cf565b5b60006104af84828501610476565b91505092915050565b600080604083850312156104cf576104ce6103cf565b5b60006104dd85828601610476565b92505060206104ee858286016103eb565b9150509250929050565b7f4e487b7100000000000000000000000000000000000000000000000000000000600052601160045260246000fd5b60006105328261039b565b915061053d8361039b565b9250828210156105505761054f6104f8565b5b828203905092915050565b60006105668261039b565b91506105718361039b565b9250827fffffffffffffffffffffffffffffffffffffffffffffffffffffffffffffffff038211156105a6576105a56104f8565b5b828201905092915050565b6105ba8161044d565b82525050565b60006060820190506105d560008301866105b1565b6105e260208301856105b1565b6105ef60408301846103a5565b94935050505056fea2646970667358221220030f0856a3af13b7d174be4d5b5b2c3449e69ac786b4b99804a4f2eec1c5f6ef64736f6c634300080d0033",
  "immutableReferences": {},
  "source": "// SPDX-License-Identifier: MIT\r\npragma solidity ^0.8.13;\r\n\r\ncontract JackieToken {\r\n    string name = \"Jackie Token\";\r\n    string symbol = \"JT\";\r\n    uint256 public totalSupply;\r\n\r\n    mapping(address => uint256) public balanceOf;\r\n\r\n    event Transfer(address _from, address _to, uint256 _value);\r\n\r\n    function tokenSupply(uint256 _tokens) public {\r\n        totalSupply = _tokens;\r\n        balanceOf[msg.sender] = _tokens;\r\n    }\r\n\r\n    function transfer(address _to, uint256 _value) public {\r\n        require(balanceOf[msg.sender] >= _value);\r\n        balanceOf[msg.sender] -= _value;\r\n        balanceOf[_to] += _value;\r\n        emit Transfer(msg.sender, _to, _value);\r\n    }\r\n\r\n    function getName() public pure returns (string memory) {\r\n        return \"Sunil\";\r\n    }\r\n}\r\n",
  "sourcePath": "I:\\Web3.0\\truffleMetacoin\\contracts\\JackieToken.sol",
  "compiler": {
    "name": "solc",
    "version": "0.8.13+commit.abaa5c0e.Emscripten.clang"
  },
  "schemaVersion": "3.4.4",
  "updatedAt": "2022-08-04T18:45:09.223Z",
  "networkType": "ethereum",
  "devdoc": {
    "kind": "dev",
    "methods": {},
    "version": 1
  },
  "userdoc": {
    "kind": "user",
    "methods": {},
    "version": 1
  }
}