{
  "contractName": "SocialNetwork",
  "abi": [
    {
      "inputs": [],
      "stateMutability": "nonpayable",
      "type": "constructor"
    },
    {
      "inputs": [],
      "name": "name",
      "outputs": [
        {
          "internalType": "string",
          "name": "",
          "type": "string"
        }
      ],
      "stateMutability": "view",
      "type": "function",
      "constant": true
    },
    {
      "inputs": [],
      "name": "getName",
      "outputs": [
        {
          "internalType": "string",
          "name": "",
          "type": "string"
        }
      ],
      "stateMutability": "view",
      "type": "function",
      "constant": true
    }
  ],
  "bytecode": "0x608060405234801561001057600080fd5b506040518060400160405280600e81526020017f53756e696c20596f7520526f636b0000000000000000000000000000000000008152506000908051906020019061005c929190610062565b50610165565b82805461006e90610134565b90600052602060002090601f01602090048101928261009057600085556100d7565b82601f106100a957805160ff19168380011785556100d7565b828001600101855582156100d7579182015b828111156100d65782518255916020019190600101906100bb565b5b5090506100e491906100e8565b5090565b5b808211156101015760008160009055506001016100e9565b5090565b7f4e487b7100000000000000000000000000000000000000000000000000000000600052602260045260246000fd5b6000600282049050600182168061014c57607f821691505b60208210810361015f5761015e610105565b5b50919050565b6102e8806101746000396000f3fe608060405234801561001057600080fd5b50600436106100365760003560e01c806306fdde031461003b57806317d7de7c14610059575b600080fd5b610043610077565b6040516100509190610230565b60405180910390f35b610061610105565b60405161006e9190610230565b60405180910390f35b6000805461008490610281565b80601f01602080910402602001604051908101604052809291908181526020018280546100b090610281565b80156100fd5780601f106100d2576101008083540402835291602001916100fd565b820191906000526020600020905b8154815290600101906020018083116100e057829003601f168201915b505050505081565b60606000805461011490610281565b80601f016020809104026020016040519081016040528092919081815260200182805461014090610281565b801561018d5780601f106101625761010080835404028352916020019161018d565b820191906000526020600020905b81548152906001019060200180831161017057829003601f168201915b5050505050905090565b600081519050919050565b600082825260208201905092915050565b60005b838110156101d15780820151818401526020810190506101b6565b838111156101e0576000848401525b50505050565b6000601f19601f8301169050919050565b600061020282610197565b61020c81856101a2565b935061021c8185602086016101b3565b610225816101e6565b840191505092915050565b6000602082019050818103600083015261024a81846101f7565b905092915050565b7f4e487b7100000000000000000000000000000000000000000000000000000000600052602260045260246000fd5b6000600282049050600182168061029957607f821691505b6020821081036102ac576102ab610252565b5b5091905056fea2646970667358221220c3ca36f386028366a154ba022d9b23a460098de691e451b889f6b23e3dc9800064736f6c634300080d0033",
  "immutableReferences": {},
  "source": "// SPDX-License-Identifier: MIT\r\npragma solidity ^0.8.13;\r\n\r\ncontract SocialNetwork{\r\n\r\n   string public name;\r\n\r\n  constructor() {\r\n  \tname =\"Sunil You Rock\";\r\n  }\r\n\r\n  function getName() public view returns(string memory) {\r\n   return name;\r\n }\r\n\r\n}\r\n",
  "sourcePath": "I:\\Web3.0\\truffleMetacoin\\contracts\\SocialNetwork.sol",
  "compiler": {
    "name": "solc",
    "version": "0.8.13+commit.abaa5c0e.Emscripten.clang"
  },
  "schemaVersion": "3.4.4",
  "updatedAt": "2022-08-03T20:00:34.944Z",
  "networkType": "ethereum",
  "devdoc": {
    "kind": "dev",
    "methods": {},
    "version": 1
  },
  "userdoc": {
    "kind": "user",
    "methods": {},
    "version": 1
  }
}